S01300004156522050524F4A4543542E73726563F1
S11300000C942A000C94AC000C943C000C943C001E
S11300100C943C000C943C000C943C000C943C006C
S11300200C943C000C943C000C943C000C943C005C
S11300300C943C000C943C000C943C000C943C004C
S11300400C943C000C943C000C943C000C943C003C
S11300500C943C0011241FBECFE5D8E0DEBFCDBF19
S113006020E0A0E6B0E001C01D92A136B207E1F79E
S11300700E941E040C9464060C9400008FB78068E0
S11300808FBF85B7836085BF8BB780648BBF62E009
S113009084E40E94D20060E081E40E941B0187E4B2
S11300A08093600060E070E080EA90E40E94E202E5
S11300B060E081E40E945C01C9E5C093600000E057
S11300C010E020E03FE345E050E061E081E40E947D
S11300D0710162E081E40E941B0182E5809360006B
S11300E060E070E080EA90E40E94E20262E081E471
S11300F00E945C01C093600000E010E020E03FE358
S113010045E050E061E081E40E947101C4CF823592
S113011059F462E081E40E945C010E94210462E0DF
S113012081E40E941B010895873459F460E081E45E
S11301300E945C010E94380460E081E40E941B017B
S1130140089561E081E40E945C010E94380461E04A
S113015081E40E941B0108951F920F920FB60F9223
S113016011242F933F934F935F936F937F938F93B8
S11301709F93AF93BF93EF93FF93809160000E948E
S11301808700FF91EF91BF91AF919F918F917F91E4
S11301906F915F914F913F912F910F900FBE0F90F0
S11301A01F901895CF93DF9300D0CDB7DEB7898326
S11301B06A836A81898140E00E9498010F900F90C0
S11301C0DF91CF910895CF93DF9300D0CDB7DEB701
S11301D089836A836A81898141E00E9498010F9032
S11301E00F90DF91CF9108951F93CF93DF9300D0A9
S11301F0CDB7DEB789836A83142F6A8189810E940F
S1130200E300113031F46A81898141E00E943D02AA
S11302100CC0111106C06A81898140E00E943D0230
S113022004C06A8189810E94FC030F900F90DF91C2
S1130230CF911F910895CF93DF9300D0CDB7DEB750
S113024089836A836A8189810E94E3006A81898142
S113025041E00E94F4000F900F90DF91CF91089538
S1130260CF92DF92EF92FF92CF93DF9300D0CDB77E
S1130270DEB789836A8369017A016A8189810E9470
S1130280E3006A81898141E00E94F400C701B6015C
S11302900E94E2026A81898140E00E94F400C70161
S11302A0B6010E94E2020F900F90DF91CF91FF9070
S11302B0EF90DF90CF900895CF93DF9300D0CDB728
S11302C0DEB789836A836A8189810E94E3006A8137
S11302D0898140E00E94F4000F900F90DF91CF914C
S11302E00895CF92DF92EF92FF920F931F93CF93D3
S11302F0DF9300D0CDB7DEB789836A8368017901C3
S113030007C06A818981A70196010E943001A80172
S11303108A0101501109452BA1F70F900F90DF912D
S1130320CF911F910F91FF90EF90DF90CF900895A0
S1130330CF93DF9300D0CDB7DEB789836A838981F9
S1130340823461F118F4813441F089C0833409F4B2
S113035046C0843409F463C082C041110FC02A81AD
S113036081E090E002C0880F991F2A95E2F78095FA
S113037090959AB389238ABB80E07AC0413009F012
S113038070C02A8181E090E002C0880F991F2A95ED
S1130390E2F79AB3892B8ABB80E06AC041110FC08F
S11303A02A8181E090E002C0880F991F2A95E2F724
S11303B08095909597B3892387BB80E059C04130DD
S11303C009F051C02A8181E090E002C0880F991F92
S11303D02A95E2F797B3892B87BB80E049C0411186
S11303E00FC02A8181E090E002C0880F991F2A95EE
S11303F0E2F78095909594B3892384BB80E038C05C
S1130400413099F52A8181E090E002C0880F991F5C
S11304102A95E2F794B3892B84BB80E029C041116B
S11304200FC02A8181E090E002C0880F991F2A95AD
S1130430E2F78095909591B3892381BB80E018C041
S11304404130A9F42A8181E090E002C0880F991F0D
S11304502A95E2F791B3892B81BB80E009C081E042
S113046007C081E005C081E003C081E001C081E0F4
S11304700F900F90DF91CF910895CF93DF9300D029
S1130480CDB7DEB789836A838981823461F118F438
S1130490813441F089C0833409F446C0843409F4BA
S11304A063C082C041110FC02A8181E090E002C084
S11304B0880F991F2A95E2F7809590959BB389231D
S11304C08BBB80E07AC0413009F070C02A8181E0A2
S11304D090E002C0880F991F2A95E2F79BB3892BFD
S11304E08BBB80E06AC041110FC02A8181E090E09B
S11304F002C0880F991F2A95E2F78095909598B3CA
S1130500892388BB80E059C0413009F051C02A8159
S113051081E090E002C0880F991F2A95E2F798B312
S1130520892B88BB80E049C041110FC02A8181E03A
S113053090E002C0880F991F2A95E2F78095909564
S113054095B3892385BB80E038C0413099F52A8171
S113055081E090E002C0880F991F2A95E2F795B3D5
S1130560892B85BB80E029C041110FC02A8181E01D
S113057090E002C0880F991F2A95E2F78095909524
S113058092B3892382BB80E018C04130A9F42A8148
S113059081E090E002C0880F991F2A95E2F792B398
S11305A0892B82BB80E009C081E007C081E005C0DF
S11305B081E003C081E001C081E00F900F90DF91E2
S11305C0CF9108958F929F92AF92BF92CF92DF9274
S11305D0EF92FF92CF93DF936B017C012DEB37E316
S11305E046E859E30E9401051816F4F013BEA7016A
S11305F096016DEB77E386E899E30E947D042DEB89
S113060037E346E855E30E9406050E94EA040E9487
S11306107F0562BF83B7816083BF08B600FEFDCF4C
S113062088B7816088BFDDC02DEB37E346E05BE32C
S1130630C701B6010E9401051816F4F013BEA70104
S113064096016DEB77E386E09BE30E947D042DEB3E
S113065037E346E057E30E9406050E94EA040E943D
S11306607F0562BF83B7826083BF08B600FEFDCFFB
S113067088B7816088BFB5C02DEB37E346E85CE3FB
S1130680C701B6010E94010518160CF113BEA7019B
S113069096016DEB77E386E89CE30E947D042DEBE5
S11306A037E346E858E30E9406050E94EA040E94E4
S11306B07F0562BF83B7816083BF83B7826083BFD6
S11306C008B600FEFDCF88B7816088BF8AC02DEBD5
S11306D037E346E85DE3C701B6010E940105181639
S11306E0F4F013BEA70196016DEB77E386E89DE372
S11306F00E947D042DEB37E346E859E30E9406058A
S11307000E94EA040E947F0562BF83B7846083BFAE
S113071008B600FEFDCF88B7816088BF62C02DEBAC
S113072037E346E85EE3C701B6010E9401051816E7
S1130730FCF013BEA70196016DEB77E386E89EE318
S11307400E947D042DEB37E346E85AE30E94060538
S11307500E94780562BF83B7816083BF83B78460DA
S113076083BF08B600FEFDCF88B7816088BF39C05B
S11307702DEB37E346E85EE3C701B6010E940605A8
S11307804B015C010E94EA040E947805EB0127C03A
S113079013BE2DEB37E346E85AE3C701B6010E94C6
S11307A00605A50194010E9406059B01AC0160E0C9
S11307B070E080E893E40E947D040E94EA040E94B1
S11307C07F0562BF83B7816083BF83B7846083BFC3
S11307D008B600FEFDCF88B7816088BF21972097B7
S11307E0B9F6DF91CF91FF90EF90DF90CF90BF905B
S11307F0AF909F908F900895CF93DF9300D0CDB7A3
S1130800DEB789836A836A81898141E00E943D025F
S113081060E070E080EA90E40E94E2026A818981EB
S113082040E00E943D0260E070E080EA90E40E94B3
S1130830E2020F900F90DF91CF9108950E943E0045
S1130840FDCF62E081E40E941B0160E082E40E942B
S11308501B0160E070E080EA90E40E94E20262E042
S113086081E40E945C0160E082E40E945C010895DE
S1130870CF93DF9362E082E40E941B01C5E0D0E0E5
S11308801DC061E082E40E941B0161E081E40E94DA
S11308901B0160E070E080E09FE30E94E20261E0FF
S11308A082E40E945C0161E081E40E945C0160E0FA
S11308B070E080E09FE30E94E2022197209709F70D
S11308C060E082E40E941B0162E081E40E941B015B
S11308D060E070E080EA90E40E94E20262E082E478
S11308E00E945C0160E082E40E945C0162E081E4B9
S11308F00E945C01DF91CF9108955058BB27AA272D
S11309000E9495040C9412060E94040638F00E947A
S11309100B0620F039F49F3F19F426F40C940106D9
S11309200EF4E095E7FB0C94D205E92F0E94230610
S113093058F3BA17620773078407950720F079F410
S1130940A6F50C945D060EF4E0950B2EBA2FA02D9F
S11309500B01B90190010C01CA01A0011124FF2768
S1130960591B99F0593F50F4503E68F11A16F04063
S1130970A22F232F342F4427585FF3CF4695379562
S11309802795A795F0405395C9F77EF41F16BA0B27
S1130990620B730B840BBAF09150A1F0FF0FBB1FD5
S11309A0661F771F881FC2F70EC0BA0F621F731F1E
S11309B0841F48F4879577956795B795F7959E3F7B
S11309C008F0B0CF9395880F08F09927EE0F97950C
S11309D0879508950E94450690F09F3748F4911139
S11309E016F40C945E0660E070E080E89FE30895DE
S11309F026F01B16611D711D811D0C94D8050C94E5
S1130A00F3050E94AE0508F481E008950E941A05DA
S1130A100C9412060E940B0658F00E94040640F043
S1130A2029F45F3F29F00C94D20551110C945E0611
S1130A300C9401060E94230668F39923B1F355230D
S1130A4091F3951B550BBB27AA27621773078407DD
S1130A5038F09F5F5F4F220F331F441FAA1FA9F373
S1130A6035D00E2E3AF0E0E832D091505040E69561
S1130A70001CCAF72BD0FE2F29D0660F771F881FC2
S1130A80BB1F261737074807AB07B0E809F0BB0BB5
S1130A90802DBF01FF2793585F4F3AF09E3F5105C9
S1130AA078F00C94D2050C945E065F3FE4F3983E14
S1130AB0D4F3869577956795B795F7959F5FC9F7B2
S1130AC0880F911D9695879597F90895E1E0660F33
S1130AD0771F881FBB1F621773078407BA0720F0AC
S1130AE0621B730B840BBA0BEE1F88F7E095089515
S1130AF00E947F056894B1110C945E0608950E94CB
S1130B002B0688F09F5798F0B92F9927B751B0F06A
S1130B10E1F0660F771F881F991F1AF0BA95C9F77D
S1130B2014C0B13091F00E945D06B1E008950C94B8
S1130B305D06672F782F8827B85F39F0B93FCCF36B
S1130B40869577956795B395D9F73EF490958095FA
S1130B50709561957F4F8F4F9F4F0895990F0008AF
S1130B60550FAA0BE0E8FEEF16161706E807F9077B
S1130B70C0F012161306E407F50798F0621B730B16
S1130B80840B950B39F40A2661F0232B242B252B97
S1130B9021F408950A2609F4A140A6958FEF811D3A
S1130BA0811D089597F99F6780E870E060E00895DB
S1130BB0882371F4772321F09850872B762F07C070
S1130BC0662311F499270DC09051862B70E060E0E4
S1130BD02AF09A95660F771F881FDAF7880F969583
S1130BE0879597F908959F3F31F0915020F48795A8
S1130BF077956795B795880F911D9695879597F981
S1130C0008959FEF80EC089500240A9416161706A1
S1130C1018060906089500240A94121613061406E9
S1130C2005060895092E0394000C11F4882352F04C
S1130C30BB0F40F4BF2B11F460FF04C06F5F7F4F04
S1130C408F4F9F4F089557FD9058440F551F59F0EB
S1130C505F3F71F04795880F97FB991F61F09F3FA5
S1130C6079F087950895121613061406551FF2CFCE
S1130C704695F1DF08C0161617061806991FF1CF1E
S1130C80869571056105089408950E942B06A0F0CD
S1130C90BEE7B91788F4BB279F3860F41616B11D58
S1130CA0672F782F8827985FF7CF86957795679574
S1130CB0B11D93959639C8F30895E894BB27662728
S10F0CC07727CB0197F90895F894FFCF33
S9030000FC
