S00D000066697273742E73726563EF
S11300000C942A000C9434000C9434000C943400A6
S11300100C9434000C9434000C9434000C9434008C
S11300200C9434000C9434000C9434000C9434007C
S11300300C9434000C9434000C9434000C9434006C
S11300400C9434000C9434000C9434000C9434005C
S11300500C94340011241FBECFE5D8E0DEBFCDBF21
S11300600E9480010C9495010C940000CF93DF93BF
S113007000D0CDB7DEB789836A838981823461F188
S113008018F4813441F089C0833409F446C08434BF
S113009009F463C082C041110FC02A8181E090E05D
S11300A002C0880F991F2A95E2F7809590959AB31C
S11300B089238ABB80E07AC0413009F070C02A816C
S11300C081E090E002C0880F991F2A95E2F79AB365
S11300D0892B8ABB80E06AC041110FC02A8181E06C
S11300E090E002C0880F991F2A95E2F780959095B9
S11300F097B3892387BB80E059C0413009F051C0D0
S11301002A8181E090E002C0880F991F2A95E2F7C6
S113011097B3892B87BB80E049C041110FC02A8166
S113012081E090E002C0880F991F2A95E2F780953C
S1130130909594B3892384BB80E038C0413099F50D
S11301402A8181E090E002C0880F991F2A95E2F786
S113015094B3892B84BB80E029C041110FC02A814C
S113016081E090E002C0880F991F2A95E2F78095FC
S1130170909591B3892381BB80E018C04130A9F4E4
S11301802A8181E090E002C0880F991F2A95E2F746
S113019091B3892B81BB80E009C081E007C081E075
S11301A005C081E003C081E001C081E00F900F90A1
S11301B0DF91CF910895CF93DF9300D0CDB7DEB711
S11301C089836A838981823461F118F4813441F02E
S11301D089C0833409F446C0843409F463C082C0FE
S11301E041110FC02A8181E090E002C0880F991F5D
S11301F02A95E2F7809590959BB389238BBB80E089
S11302007AC0413009F070C02A8181E090E002C0D8
S1130210880F991F2A95E2F79BB3892B8BBB80E04B
S11302206AC041110FC02A8181E090E002C0880FAA
S1130230991F2A95E2F78095909598B3892388BBF6
S113024080E059C0413009F051C02A8181E090E03A
S113025002C0880F991F2A95E2F798B3892B88BBAF
S113026080E049C041110FC02A8181E090E002C0C2
S1130270880F991F2A95E2F78095909595B3892365
S113028085BB80E038C0413099F52A8181E090E057
S113029002C0880F991F2A95E2F795B3892B85BB75
S11302A080E029C041110FC02A8181E090E002C0A2
S11302B0880F991F2A95E2F78095909592B3892328
S11302C082BB80E018C04130A9F42A8181E090E02B
S11302D002C0880F991F2A95E2F792B3892B82BB3B
S11302E080E009C081E007C081E005C081E003C06F
S11302F081E001C081E00F900F90DF91CF910895CC
S113030041E064E081E40E94360041E067E083E478
S11303100E94360041E064E081E40E94DB0040E09A
S111032067E083E40E94DB00F5CFF894FFCF82
S9030000FC
